{
  "contractName": "voting",
  "abi": [
    {
      "constant": true,
      "inputs": [
        {
          "internalType": "uint256",
          "name": "",
          "type": "uint256"
        }
      ],
      "name": "candidates",
      "outputs": [
        {
          "internalType": "uint256",
          "name": "id",
          "type": "uint256"
        },
        {
          "internalType": "uint256",
          "name": "votes",
          "type": "uint256"
        },
        {
          "internalType": "string",
          "name": "name",
          "type": "string"
        }
      ],
      "payable": false,
      "stateMutability": "view",
      "type": "function"
    },
    {
      "constant": true,
      "inputs": [
        {
          "internalType": "address",
          "name": "",
          "type": "address"
        }
      ],
      "name": "voters",
      "outputs": [
        {
          "internalType": "bool",
          "name": "",
          "type": "bool"
        }
      ],
      "payable": false,
      "stateMutability": "view",
      "type": "function"
    },
    {
      "constant": false,
      "inputs": [],
      "name": "elections",
      "outputs": [],
      "payable": false,
      "stateMutability": "nonpayable",
      "type": "function"
    },
    {
      "constant": false,
      "inputs": [
        {
          "internalType": "uint256",
          "name": "_candidateId",
          "type": "uint256"
        }
      ],
      "name": "vote",
      "outputs": [],
      "payable": false,
      "stateMutability": "nonpayable",
      "type": "function"
    }
  ],
  "bytecode": "0x6080604052600060015534801561001557600080fd5b50610541806100256000396000f3fe608060405234801561001057600080fd5b506004361061004c5760003560e01c80630121b93f146100515780633477ee2e1461007f57806386a01aac14610134578063a3ec138d1461013e575b600080fd5b61007d6004803603602081101561006757600080fd5b810190808035906020019092919050505061019a565b005b6100ab6004803603602081101561009557600080fd5b810190808035906020019092919050505061028c565b6040518084815260200183815260200180602001828103825283818151815260200191508051906020019080838360005b838110156100f75780820151818401526020810190506100dc565b50505050905090810190601f1680156101245780820380516001836020036101000a031916815260200191505b5094505050505060405180910390f35b61013c61034e565b005b6101806004803603602081101561015457600080fd5b81019080803573ffffffffffffffffffffffffffffffffffffffff1690602001909291905050506103cc565b604051808215151515815260200191505060405180910390f35b600260003373ffffffffffffffffffffffffffffffffffffffff1673ffffffffffffffffffffffffffffffffffffffff16815260200190815260200160002060009054906101000a900460ff16156101f157600080fd5b60008111801561020357506001548111155b61020c57600080fd5b6001600260003373ffffffffffffffffffffffffffffffffffffffff1673ffffffffffffffffffffffffffffffffffffffff16815260200190815260200160002060006101000a81548160ff0219169083151502179055506000808281526020019081526020016000206001016000815480929190600101919050555050565b6000602052806000526040600020600091509050806000015490806001015490806002018054600181600116156101000203166002900480601f0160208091040260200160405190810160405280929190818152602001828054600181600116156101000203166002900480156103445780601f1061031957610100808354040283529160200191610344565b820191906000526020600020905b81548152906001019060200180831161032757829003601f168201915b5050505050905083565b61038c6040518060400160405280601281526020017f43616e64696461746520313a2041686d656400000000000000000000000000008152506103ec565b6103ca6040518060400160405280601481526020017f43616e64696461746520323a204d6f68616d65640000000000000000000000008152506103ec565b565b60026020528060005260406000206000915054906101000a900460ff1681565b600160008154809291906001019190505550604051806060016040528060015481526020016000815260200182815250600080600154815260200190815260200160002060008201518160000155602082015181600101556040820151816002019080519060200190610460929190610467565b5090505050565b828054600181600116156101000203166002900490600052602060002090601f016020900481019282601f106104a857805160ff19168380011785556104d6565b828001600101855582156104d6579182015b828111156104d55782518255916020019190600101906104ba565b5b5090506104e391906104e7565b5090565b61050991905b808211156105055760008160009055506001016104ed565b5090565b9056fea265627a7a72315820c88504ac468dc59c1e14dfbe02d166741a084adae094dbde44e81efc6704eb2f64736f6c63430005100032",
  "source": "pragma solidity >=0.4.21 <0.7.0;\r\n\r\ncontract voting {\r\n\r\n    struct Candidate {\r\n        uint id;\r\n        uint votes;\r\n        string name;\r\n    }\r\n      mapping(uint => Candidate) public candidates;\r\n\r\n\r\n      uint candidateNo = 0;\r\n\r\n      function addCandidate(string memory _name) private {\r\n          candidateNo++;\r\n          candidates[candidateNo] = Candidate(candidateNo, 0, _name);\r\n      }\r\n      function elections() public {\r\n          addCandidate(\"Candidate 1: Ahmed\");\r\n          addCandidate(\"Candidate 2: Mohamed\");\r\n      }\r\n\r\n      mapping(address => bool) public voters;\r\n\r\n      function vote (uint _candidateId) public {\r\n        require(!voters[msg.sender]);\r\n\r\n        // require a valid candidate\r\n        require(_candidateId > 0 && _candidateId <= candidateNo);\r\n\r\n        voters[msg.sender] = true;\r\n\r\n        candidates[_candidateId].votes ++;\r\n    }\r\n}\r\n",
  "sourcePath": "C:/Users/hp/Desktop/BlockChain/voting_app/contracts/voting.sol",
  "compiler": {
    "name": "solc",
    "version": "0.5.16+commit.9c3226ce.Emscripten.clang"
  },
  "schemaVersion": "3.2.2",
  "updatedAt": "2020-07-27T22:07:16.967Z",
  "networkType": "ethereum",
  "devdoc": {
    "methods": {}
  },
  "userdoc": {
    "methods": {}
  }
}